{
  "_format": "hh-sol-artifact-1",
  "contractName": "EthereumFaucet",
  "sourceName": "contracts/EthereumFaucet.sol",
  "abi": [
    {
      "inputs": [],
      "name": "donate",
      "outputs": [],
      "stateMutability": "payable",
      "type": "function"
    },
    {
      "inputs": [
        {
          "internalType": "address payable",
          "name": "_receiver",
          "type": "address"
        },
        {
          "internalType": "uint256",
          "name": "amount",
          "type": "uint256"
        }
      ],
      "name": "getEther",
      "outputs": [],
      "stateMutability": "nonpayable",
      "type": "function"
    },
    {
      "inputs": [],
      "name": "getFaucetBalance",
      "outputs": [
        {
          "internalType": "uint256",
          "name": "",
          "type": "uint256"
        }
      ],
      "stateMutability": "view",
      "type": "function"
    }
  ],
  "bytecode": "0x608060405234801561001057600080fd5b50610226806100206000396000f3fe6080604052600436106100345760003560e01c8063a079c56a14610039578063ed88c68e14610062578063f1f959a61461006c575b600080fd5b34801561004557600080fd5b50610060600480360381019061005b9190610120565b610097565b005b61006a6100ec565b005b34801561007857600080fd5b506100816100ee565b60405161008e919061016b565b60405180910390f35b804710156100a457600080fd5b60008273ffffffffffffffffffffffffffffffffffffffff166108fc839081150290604051600060405180830381858888f193505050509050806100e757600080fd5b505050565b565b600047905090565b600081359050610105816101c2565b92915050565b60008135905061011a816101d9565b92915050565b6000806040838503121561013357600080fd5b6000610141858286016100f6565b92505060206101528582860161010b565b9150509250929050565b610165816101b8565b82525050565b6000602082019050610180600083018461015c565b92915050565b600061019182610198565b9050919050565b600073ffffffffffffffffffffffffffffffffffffffff82169050919050565b6000819050919050565b6101cb81610186565b81146101d657600080fd5b50565b6101e2816101b8565b81146101ed57600080fd5b5056fea2646970667358221220707f4c92d131454717279c1f5e4019f12e8875fb29d15b37f57a9a2774a1d64764736f6c63430008000033",
  "linkReferences": {},
  "deployedLinkReferences": {}
}